:020000040800F2
:100000006009002045020008AD210008B10C00087D
:10001000A921000835030008913000080000000005
:10002000000000000000000000000000192400088B
:10003000050C000800000000AF210008112F000887
:100040005F0200085F0200085F0200085F0200080C
:100050005F0200085F0200085F0200085F020008FC
:100060005F0200085F0200085F0200085F020008EC
:100070005F0200085F0200085F0200085F020008DC
:100080005F0200085F0200085F0200085F020008CC
:100090005F0200085F0200085F0200085F020008BC
:1000A0005F0200085F0200085F0200085F020008AC
:1000B0005F0200085F0200085F0200085F0200089C
:1000C0005F0200085F0200085F0200085F0200088C
:1000D0005F0200085F0200085F0200085F0200087C
:1000E000150C00085F0200085F0200085F020008AC
:1000F0005F0200085F0200085F0200085F0200085C
:100100005F0200085F0200085F0200085F0200084B
:100110005F0200085F0200085F0200085F0200083B
:100120005F0200085F0200085F0200085F0200082B
:1001300000F002F800F05CF80AA090E8000C82449D
:100140008344AAF10107DA4501D100F051F8AFF27A
:10015000090EBAE80F0013F0010F18BFFB1A43F0A5
:100160000103184758B0030078B003000A444FF069
:10017000000C10F8013B13F0070408BF10F8014B06
:100180001D1108BF10F8015B641E05D010F8016B4B
:10019000641E01F8016BF9D113F0080F1EBF10F8AF
:1001A000014BAD1C0C1B09D16D1E58BF01F801CBD2
:1001B000FAD505E014F8016B01F8016B6D1EF9D555
:1001C0009142D6D37047000000230024002500266A
:1001D000103A28BF78C1FBD8520728BF30C148BFAA
:1001E0000B6070471FB500F062F81FBD10B510BD61
:1001F00000F069F81146FFF7F5FF02F04BFF00F041
:1002000087F803B4FFF7F2FF03BC00F08DF800009D
:100210000B49D1F800C04A685CF8043B10681844E8
:1002200042F8040B8C4528BFA1F1DC0C8A4228BFA0
:10023000A1F1DC02C1F800C04A6020F00040704724
:10024000F40200200948804709480047FEE7FEE71E
:10025000FEE7FEE7FEE7FEE7FEE7FEE7FEE7FEE776
:1002600004480549054A064B704700003D2F000829
:1002700031010008600300206009002060050020B3
:10028000600500200B4910B5A1F17C020A4CC2E9BF
:100290003712372106E000EB104342F82130074BBC
:1002A00000FB03400B1EA1F10101F4DC10BD012095
:1002B000E8E7000094020020E119D666CD0D0100A8
:1002C000704770477047754600F028F8AE46050045
:1002D0006946534620F00700854618B020B5FFF761
:1002E000BFFFBDE820404FF000064FF000074FF081
:1002F00000084FF0000B21F00701AC46ACE8C00944
:10030000ACE8C009ACE8C009ACE8C0098D4670474C
:100310000446AFF300802046FFF773FF00487047A4
:10032000FC0200207047000001491820ABBEFEE728
:100330002600020000BFFEE770B50A2582260024D1
:1003400006E03F480068844200D103E02036641C88
:10035000032CF6DB00BF002406E03A480068844224
:1003600000D103E02035641C072CF6DB00BF364BC0
:100370001A78B1B2A8B201F093FF3148006833494E
:10038000314A126841F832002E4801682F482E4A3F
:10039000126800EBC20041602D480068401E2C49E5
:1003A00008602C482849096850F821002A49096842
:1003B000081A294908602448006802280AD108461A
:1003C00000680C30086008460068632811DD63206F
:1003D00008600EE01C48006803280AD11E48006827
:1003E00019301D49086008460068632801DD632054
:1003F000086014480268124801681348006800F059
:1004000033F8002015490860002115480E4A12688B
:1004100040F8221000200A490968C1EBC101114AC5
:1004200002EB8101074A126841F8220040F2E730EE
:1004300003490860034908600349086070BD000073
:1004400014000020180000201C000020D000002014
:100450002400002098000020200000204000002000
:10046000B400002008010020F0B503460C46002B24
:1004700076D1032524BB002120E000201AE01618C5
:10048000062E00D118E0C1EBC106DD4F07EB860652
:10049000171856F82760DB4F57F823703E44C1EB1E
:1004A000C107DFF85CC30CEB870702EB000C47F8D1
:1004B0002C60401CA842E2DD00BF491C0229DCDBA5
:1004C000012C24D1002120E000201AE01618062E6D
:1004D00000D118E0C1EBC106C94F07EB860617181B
:1004E00056F82760C74F57F823703E44C1EBC10749
:1004F000DFF80CC30CEB870702EB000C47F82C600D
:10050000401CA842E2DD00BF491C0329DCDB022CB1
:1005100024D1012120E000201AE01618062E00D177
:1005200018E0C1EBC106B64F07EB8606171856F860
:100530002760B44F57F823703E44C1EBC107DFF882
:10054000C0C20CEB870702EB000C47F82C60401C84
:10055000A842E2DD00BF491C0329DCDB4EE1FFE7D6
:10056000052B75D17CBB002011E01618062E00D19A
:100570000FE01618A24F57F82660A24F57F82370C5
:100580003E441718DFF878C24CF82760401C032857
:10059000EBDD00BF002013E01618062E00D111E09D
:1005A0001718974E1C3656F82760964F57F8237049
:1005B000374402EB000C924E1C3646F82C70401C5F
:1005C0000228E9DD00BF012C3ED1002013E01618FF
:1005D000062E00D111E01718894E1C3656F82760F8
:1005E000884F57F82370374402EB000C844E1C36BA
:1005F00046F82C70401C0328E9DD00BF002020E0F5
:100600001618062E00D11EE016187D4F57F82660EA
:100610007C4F57F823703E441718DFF8E4C14CF8BC
:10062000276017180CF1380656F82760754F57F8F1
:100630002370374402EB000C714E383646F82C70AC
:10064000401C0228DCDD00BF022C87D1002014E012
:100650002FE01618062E00D111E01718684E383614
:1006600056F82760674F57F82370374402EB000CA9
:10067000634E383646F82C70401C0328E9DD00BF75
:10068000002013E01618062E00D111E017185C4E5A
:100690001C3656F827605B4F57F82370374402EB3F
:1006A000000C574E1C3646F82C70401C0228E9DD21
:1006B000A4E0062B79D103252CBB002121E00020EA
:1006C0001BE01618062E00D119E0C1EBC1064E4FF3
:1006D00007EB86071618761E57F82660494F57F81D
:1006E00023703744C1EBC106DFF81CC10CEB860C4C
:1006F0001618761E4CF82670401CA842E1DD00BF9B
:10070000491C0229DBDB012C25D1002121E000203E
:100710001BE01618062E00D119E0C1EBC1063A4FB6
:1007200007EB86071618761E57F82660354F57F8E0
:1007300023703744C1EBC106DFF8CCC00CEB860C4C
:100740001618761E4CF82670401CA842E1DD00BF4A
:10075000491C0329DBDB022C50D1012121E00020C0
:100760001BE01618062E00D119E0C1EBC106264F7A
:1007700007EB86071618761E57F82660214F57F8A4
:1007800023703744C1EBC106DFF87CC00CEB860C4C
:100790001618761E4CF82670401CA842E1DD00BFFA
:1007A000491C0329DBDB29E0FFE7C4EBC406144F37
:1007B00007EB860656F82260124F57F823703E4426
:1007C000C4EBC407DFF838C00CEB870747F822609A
:1007D000561C062E12D0C4EBC406674607EB8607EC
:1007E000561C57F82660074F57F823703744C4EB60
:1007F000C4060CEB860C561C4CF82670F0BD0000AD
:10080000700100207C000020C401002010B5C14808
:1008100000680B287ED3C0480068792803D1BF4800
:100820000078F02807D1BC480068792860D1BB481F
:10083000007879285CD0BA480068002858DDB948AB
:10084000006830B90120B7490860B7A102F0F4FB95
:100850004AE0B4480068012807D10220B149086085
:10086000B5A1012002F0E8FB3EE0AE480068022896
:100870003AD10020AB490860B1A1012002F0DCFBB5
:100880000120B2490860B248006840F2E73188426E
:100890002AD0B0480068884226D0AF480068884215
:1008A00022D0AA48006801281ED1AA480068C0EBDF
:1008B000C000AA4901EB8000A749096850F821004F
:1008C000012811D1A648A249096850F82100A5497C
:1008D0000968884208DCA4489D49096850F821004D
:1008E000012801D1FFF728FD4CF2503000F08BF9C0
:1008F0008C480068002879D187480068702811D199
:100900009AA1012002F098FB002091490860084656
:10091000006800E0FDE001F0D6FF8D48006801F0BE
:10092000B3FF77E07C48006869280FD192A10120CD
:1009300002F082FB0120864908600846006801F049
:10094000C2FF8348006801F09FFF63E072480068BF
:1009500072280FD18BA1012002F06EFB02207C498E
:1009600008600846006801F0AEFF7948006801F0B1
:100970008BFF4FE0684800687A280FD183A10120DF
:1009800002F05AFB0320724908600846006801F033
:100990009AFF6F48006801F077FF3BE05E4800680F
:1009A0006B280FD17CA1012002F046FB042068498E
:1009B00008600846006801F086FF6548006801F09D
:1009C00063FF27E054480068732810D174A1012008
:1009D00002F032FB05205E4908600846006801F01D
:1009E00072FF5B48006801F04FFF13E017E04A48D0
:1009F000006874280ED16EA1012002F01DFB0620B4
:100A0000534908600846006801F05DFF50480068DF
:100A100001F03AFF4CF2503000F0F5F86CE041483C
:100A20000068012826D13C480068702807D10020C2
:100A30004849086062A1012002F0FEFA15E036483C
:100A40000068692806D10120424908605EA102F0D1
:100A5000F3FA0AE030480068722806D102203D49C6
:100A600008605BA1012002F0E7FA4CF2503000F080
:100A7000CAF841E02B48006802283DD126480068AA
:100A8000692806D101203449086053A102F0D4FA44
:100A90002EE021480068722807D102202E49086004
:100AA0004FA1012002F0C8FA22E01B4800687A2812
:100AB00007D10320284908604BA1012002F0BCFAAD
:100AC00016E0154800686B2807D104202249086009
:100AD00047A1012002F0B0FA0AE00F48006873282D
:100AE00006D105201C49086043A1012002F0A4FAA8
:100AF0004CF2503000F087F807480078074908703A
:100B0000002004490860044908604FF400603C4933
:100B1000086010BD340000203000002038000020A4
:100B2000240000203C0000206F70657261746F72B9
:100B3000206F6B0A00000000617272206F6B0A0068
:100B4000656C656D656E74206F6B0A004000002057
:100B50001C000020140000201800002008010020C4
:100B60009800002020000020B40000200A706C6172
:100B700074696E756D0A00000A6D7564726F636B3F
:100B80000A0000000A546578610A00000A426167A1
:100B9000706970650A0000000A736B6164690A007D
:100BA0000A45796A61666A616C6C610A000000003E
:100BB0000A6E696768746E69676C650A00000000F8
:100BC0000A78203D20300A000A78203D20310A00B2
:100BD0000A78203D20320A000A79203D20310A009F
:100BE0000A79203D20320A000A79203D20330A008C
:100BF0000A79203D20340A000A79203D20350A0078
:100C0000140401407047002100E0491C8142FCD3DC
:100C1000704700001149096881B110490968092924
:100C20000CD20F498968C1F380210C4A1278521EF8
:100C300091400C4A126811430A4A11600749096839
:100C4000491C064A1160002000E0401C0A28FCDB19
:100C50004FF40061044A1160704700003400002026
:100C600000100140300000201404014001460F48EC
:100C7000006820F01F000D4A10601046006808430D
:100C800010600A482C38006840F48000074A2C3A6B
:100C9000106000BF05483438006800F002000028EA
:100CA000F8D002481830006880B270473424014000
:100CB00000BFFEE73A48806940F004003849886187
:100CC0003848006820F00F003649086034488069D1
:100CD00040F40070324988614815C8600846C06811
:100CE00020F40070C8600846406820F44040486026
:100CF0000846406840F4004048602B4800682B4993
:100D00000840294908600846006820F4807008609F
:100D1000081D006820F00200091D086008460068F0
:100D200020F4602008600846006840F460200860F5
:100D30000846006840F4801008600846006820F407
:100D40000060086018482830006820F470001649D8
:100D50002831086008460068086013480C300068B5
:100D600020F0070010490C3108600846006840F088
:100D7000070008600C48001D006840F001000A49A7
:100D8000091D08600846006840F00800086000BFC0
:100D90000548001D006800F004000028F8D17047E5
:100DA000001002400008014004240140FFFFF00051
:100DB0000848806940F008000649886106480068D4
:100DC00020F00F00044908600846006840F0030066
:100DD0000860704700100240040C01402E488069F2
:100DE00040F004002C4988612C48006820F00F0076
:100DF0002A4908600846006840F008000860264854
:100E0000806940F04000244988612548006820F44A
:100E10007020234908600846006840F400200860FC
:100E20001F480C30006840F010001D490C3108606C
:100E30001948806940F040001749886118480068E7
:100E400020F47040164908600846006840F40040ED
:100E5000086013480C30006840F0080010490C315D
:100E600008600D48806940F040000B4988610C48DB
:100E7000006820F470600A4908600846006840F481
:100E80000060086006480C30006840F00400044927
:100E90000C3108607047000000100240000801405B
:100EA000001801401948806940F00800174988611E
:100EB0001748006820F4700015490860084600686B
:100EC00040F44010086012480C30006840F02000E8
:100ED0000F490C3108600D48806940F040000B4913
:100EE00088610C48006820F470000A4908600846D0
:100EF000006840F44010086006480C30006840F07C
:100F0000200004490C3108607047000000100240C6
:100F1000000C014000180140014601F007021202D6
:100F2000054B18684FF6FF031840044B1843104355
:100F3000014B1860704700000CED00E00000FA055E
:100F40002B48806940F01000294988612948406891
:100F500020F47060274948600846406840F400600B
:100F600048600846406820F4704048600846406881
:100F700040F4004048601E48806940F001001C4970
:100F800088611D48006920F470611B480161006997
:100F900040F4007118480161006920F4704116485E
:100FA0000161006940F40051134801611348006871
:100FB00040F400601149086010480C30006840F4AB
:100FC00000600E490C31086020210D4801700D4869
:100FD000006820F480704FF0E021C1F80401084659
:100FE000D0F8040140F48070C1F80401704700009B
:100FF00000100240001001400000014000040140C8
:1010000028E400E004E100E000204FF0E021086166
:10101000034848610846006940F0030008617047D2
:101020008F5F0100F0B507460C46059D00262A207B
:1010300000F098FB201200F08FFBE0B200F08CFB78
:101040001119491EC1F30F2000F086FB1119491E2A
:10105000C8B200F081FB2B2000F084FB181200F0D6
:101060007BFBD8B200F078FBE918491EC1F30F20D2
:1010700000F072FBE918491EC8B200F06DFB2C208D
:1010800000F070FB00BF03E0384600F065FB761C03
:1010900002FB05F0B042F7D8F0BD000000B55348A0
:1010A000406940F48070514948610846806940F0C9
:1010B000080088610846806940F020008861084681
:1010C000806940F0400088610846806940F4807083
:1010D00088614748006820F00F00454908600846CD
:1010E000006840F003000860424800684249084038
:1010F0004049086008460068404908433D49086087
:10110000081F006800F0FF20091F086008460068FB
:1011100040F0BB1008603A48006800203849086079
:101120000846006840F0BB300860081F006820F0E7
:101130007040091F08600846006840F030400860B1
:101140003048406820F470202E49486008464068C6
:1011500040F4302048600846006820F00F00086026
:101160000846006840F00B00086000204FF0204166
:101170008861C861244908604FF02040806940F4CC
:1011800080504FF0204188610846806940F48040DB
:1011900088610846806940F0100088610846C0698F
:1011A000C8610846C06940F00100C8610846C069CE
:1011B00040F47060C86114480068C1F81C0112480E
:1011C0000068C1F81C010846D0F81C0140F44070CA
:1011D000C1F81C010846806940F00100886100F0F8
:1011E00015F8012002491031086000BD00100240CE
:1011F000000C01400414014000F0FF00BB0B00BBD9
:1012000004180140002001401C0100A000B501208D
:1012100000F0A8FA112000F0A5FA3A2000F0A2FA96
:10122000552000F099FA292000F09CFA362000F0B1
:1012300099FACA2000F090FA00BD00002DE9F04FA5
:1012400004460D4616469A46DDF8249010224FF0CB
:10125000080B202E01DB7F2E01DDBDE8F08FA6F10B
:101260002000C6B22A2000F07DFA201200F074FAA5
:10127000E0B200F071FA0BEB0401491EC1F30F203C
:1012800000F06AFA0BEB0401491EC8B200F064FAE0
:101290002B2000F067FA281200F05EFAE8B200F0A6
:1012A0005BFA5119491EC1F30F2000F055FA51198C
:1012B000491EC8B200F050FA2C2000F053FA002367
:1012C00027E04FF000081DE0002715E0154800EB6F
:1012D0000610012101EB4701C91A405C40FA08F0F1
:1012E00000F0010018B1504600F036FA02E048461E
:1012F00000F032FA781CC7B25F45E7DB08F1010065
:1013000000F0FF0802EBD271B8EB610FDCDB581C78
:10131000C3B2D11702EB5171B3EBE10FD1DB00BFC8
:101320009BE70000324B00082DE9F04F04460D46C4
:1013300016469A46DDF8249010229346002E01DBD3
:101340000A2E01DDBDE8F08F2A2000F00BFA2012F2
:1013500000F002FAE0B200F0FFF90BEB0401491EC5
:10136000C1F30F2000F0F8F90BEB0401491EC8B2DD
:1013700000F0F2F92B2000F0F5F9281200F0ECF95A
:10138000E8B200F0E9F95119491EC1F30F2000F04D
:10139000E3F95119491EC8B200F0DEF92C2000F023
:1013A000E1F9002327E04FF000081DE0002715E0D9
:1013B000154800EB4610012101EB4701C91A405CBA
:1013C00040FA08F000F0010018B1504600F0C4F9EE
:1013D00002E0484600F0C0F9781CC7B25F45E7DB81
:1013E00008F1010000F0FF0802EBD271B8EB610FC9
:1013F000DCDB581CC3B2D11702EB5171B3EBE10F28
:10140000D1DB00BF9EE700002251000870B5024604
:101410000B461D48458806882A2000F0A3F91012C3
:1014200000F09AF9D0B200F097F9B118491EC1F353
:101430000F2000F091F9B118491EC8B200F08CF9E4
:101440002B2000F08FF9181200F086F9D8B200F0C6
:1014500083F9E918491EC1F30F2000F07DF9E9185E
:10146000491EC8B200F078F92C2000F07BF9002466
:1014700005E0064931F8140000F06EF9641C06FB23
:1014800005F0A042F5D870BDAAB003089832010853
:101490002DE9F04104460D461746984636484388E4
:1014A00006882A2000F05EF9201200F055F9E0B21B
:1014B00000F052F93119491EC1F30F2000F04CF928
:1014C0003119491EC8B200F047F92B2000F04AF943
:1014D000281200F041F9E8B200F03EF95919491E0E
:1014E000C1F30F2000F038F95919491EC8B200F0B5
:1014F00033F92C2000F036F9C7EBC7001F4901EB88
:10150000400030F8180064280BD1002205E01C4987
:1015100031F8120000F020F9521C06FB03F0904253
:10152000F5D8C7EBC700154901EB400030F81800AB
:1015300032280BD1002205E0124931F8120000F0E8
:101540000BF9521C06FB03F09042F5D8C7EBC7001D
:101550000A4901EB400030F8180058B9002205E0B4
:10156000094931F8120000F0F7F8521C06FB03F0AD
:101570009042F5D8BDE8F081AAB003086E1A0108C0
:1015800098220108981A0108982A0108F0B5034624
:101590000C4617461E48458806882A2000F0E2F8C7
:1015A000181200F0D9F8D8B200F0D6F8F118491E98
:1015B000C1F30F2000F0D0F8F118491EC8B200F0B6
:1015C000CBF82B2000F0CEF8201200F0C5F8E0B2E6
:1015D00000F0C2F82919491EC1F30F2000F0BCF831
:1015E0002919491EC8B200F0B7F82C2000F0BAF84B
:1015F000002207E0074901EB473131F8120000F003
:10160000ABF8521C06FB05F09042F3D8F0BD000089
:10161000681A0108629A000870B502460B4626480F
:101620000068032803D125484588068802E024483D
:10163000458806882A2000F095F8101200F08CF8F2
:10164000D0B200F089F8B118491EC1F30F2000F0A4
:1016500083F8B118491EC8B200F07EF82B2000F0C4
:1016600081F8181200F078F8D8B200F075F8E9188F
:10167000491EC1F30F2000F06FF8E918491EC8B2E7
:1016800000F06AF82C2000F06DF800240FE00A4802
:101690000068032805D10B4931F8140000F05CF80C
:1016A00004E0094931F8140000F056F8641C06FB08
:1016B00005F0A042EBD870BD040000209EB00308E6
:1016C00098B00308983A0108981B0208F0B5034641
:1016D0000C4617461E48458806882A2000F042F826
:1016E000181200F039F8D8B200F036F8F118491E97
:1016F000C1F30F2000F030F8F118491EC8B200F015
:101700002BF82B2000F02EF8201200F025F8E0B284
:1017100000F022F82919491EC1F30F2000F01CF82F
:101720002919491EC8B200F017F82C2000F01AF849
:10173000002207E0074901EBC72131F8120000F051
:101740000BF8521C06FB05F09042F3D8F0BD0000E8
:10175000621A0108625200080149088070470000BF
:101760000008006C0149088070470000FE07006C0B
:101770002DE9F05F05460E46300103F07BF8814607
:10178000284905FB01F003F075F88246494602F04E
:101790008FFF0746384603F04DF884B2204603F029
:1017A00069F88346394603F045F982464FF0834194
:1017B00003F074F8814603F03DF880464FF6FF7061
:1017C00000EA041404EB080084B21748806940F072
:1017D0000400154988610846806940F480408861AA
:1017E0001248006820F47F601049086008460068CD
:1017F00040F40B6008600C48C06840F480400A491F
:10180000C8600846C06820F48040C860084804806A
:10181000001D008842F2080108430549091D08809F
:10182000BDE8F09F40420F00001002400408014054
:101830000838014007210020234A5268234B1A40F0
:10184000214B5A601A461268214B1A401E4B1A60EF
:101850001A46126842F480321A6000BF1A4A1268AF
:10186000520C002AFAD04FF48062174B5A601A4685
:10187000526842EA81425A601A46526842F4803203
:101880005A60144A126842F03002124B1A600E4A33
:10189000126842F080720C4B1A6000BF0A4A12684C
:1018A000520E002AFAD0084A526842F00202064B51
:1018B0005A6005E0044A5268C2F3870000F0030052
:1018C0000228F7D170470000001002400000FFF826
:1018D000FFFFF6FE0020024010B500223E4B1A70BA
:1018E0003E4B1A703E4B1A703E4B1A6003223E4B21
:1018F0001A7000223D4B1A6040F2E7323C4B1A60EE
:101900003C4B1A603C4B1A600F223C4B1A6005227C
:101910003B4B1A6000223B4B1A6042F210723A4B6A
:101920001A600022394B1A60394B1A60394B1A7011
:10193000394B1A60394B1A6000200AE0384A52F8D5
:101940002020384B43F820200122374B43F8202039
:10195000401C0728F2DB00200CE0002107E04FF0DC
:10196000FF32324B03EBC00343F82120491C02290C
:10197000F5DB401C0728F0DB00201CE0002117E00D
:101980000022C0EBC0032A4C04EB830343F8212060
:10199000C0EBC003274C04EB830343F82120012252
:1019A000C0EBC003244C04EB830343F82120491C03
:1019B0000729E5DB401C0328E0DB4FF0FF321F4B1B
:1019C0001A605A6040F2DC521D4B1A6052001D4BE7
:1019D0001A601D4B1A6010BD00000020010000209D
:1019E00002000020040000200C0000201000002055
:1019F00014000020180000201C00002020000020FF
:101A000024000020280000202C00002030000020AE
:101A100034000020380000203C000020400000205E
:101A20004400002060000020B4000020D00000200E
:101A300070010020C4010020080100205C0100208A
:101A400064010020680100206C01002000B588B00E
:101A5000052007904FF48470069008200590002020
:101A600004904CF6796003900498009006980290D8
:101A7000079801903122DDE90213FFF7DFFB04989C
:101A800000900698029005990798084401902E222C
:101A9000DDE90213FFF7D2FB04980090069802904C
:101AA00003220599079802FB010001904322DDE91A
:101AB0000213FFF7C3FB04980090069802900422DB
:101AC0000599079802FB010001906822DDE90213E5
:101AD000FFF7B4FB04980090069802900522059940
:101AE000079802FB010001906F22DDE90213FFF766
:101AF000A5FB049800900698029006220599079885
:101B000002FB010001906F22DDE90213FFF796FB53
:101B1000049800900698029007220599079802FB06
:101B2000010001907322DDE90213FFF787FB04989F
:101B300000900698029008220599079802FB010080
:101B400001906522DDE90213FFF778FB049800900D
:101B5000069802900A220599079802FB010001905D
:101B60004F22DDE90213FFF769FB04980090069805
:101B700002900B220599079802FB01000190702248
:101B8000DDE90213FFF75AFB0498009006980290D3
:101B90000C220599079802FB010001906522DDE9FE
:101BA0000213FFF74BFB04980090069802900D2259
:101BB0000599079802FB010001907222DDE90213EA
:101BC000FFF73CFB04980090069802900E220599BE
:101BD000079802FB010001906122DDE90213FFF783
:101BE0002DFB04980090069802900F220599079803
:101BF00002FB010001907422DDE90213FFF71EFBD6
:101C0000049800900698029010220599079802FB0C
:101C1000010001906F22DDE90213FFF70FFB04982A
:101C200000900698029011220599079802FB010086
:101C300001907222DDE90213FFF700FB0498009087
:101C40000698029013220599079802FB0100019063
:101C50002822DDE90213FFF7F1FA049800900698B4
:101C6000029014220599079802FB0100019030228E
:101C7000DDE90213FFF7E2FA04980090069802905B
:101C800016220599079802FB010001902D22DDE93B
:101C90000213FFF7D3FA04980090069802901822D6
:101CA0000599079802FB010001903622DDE9021335
:101CB000FFF7C4FA0498009006980290192205993B
:101CC000079802FB010001902922DDE90213FFF7CA
:101CD000B5FA049800900698103880B202900798E0
:101CE00001903222DDE90213FFF7A8FA0498009070
:101CF0000698103880B2029005990798084480B27F
:101D000001902E22DDE90213FFF798FA0498009063
:101D10000698103880B2029003220599079802FBBA
:101D2000010080B201904322DDE90213FFF786FA39
:101D3000049800900698103880B202900422059909
:101D4000079802FB010080B201906822DDE90213CE
:101D5000FFF774FA049800900698103880B2029049
:101D600005220599079802FB010080B201906F22BD
:101D7000DDE90213FFF762FA049800900698103824
:101D800080B2029006220599079802FB010080B2FA
:101D900001906F22DDE90213FFF750FA04980090DA
:101DA0000698103880B2029007220599079802FB26
:101DB000010080B201907322DDE90213FFF73EFAC1
:101DC000049800900698103880B202900822059975
:101DD000079802FB010080B201906522DDE9021341
:101DE000FFF72CFA049800900698103880B2029001
:101DF0000A220599079802FB010080B20190522245
:101E0000DDE90213FFF71AFA0498009006981038DB
:101E100080B202900B220599079802FB010080B264
:101E200001906F22DDE90213FFF708FA0498009091
:101E30000698103880B202900C220599079802FB90
:101E4000010080B201907722DDE90213FFF7F6F975
:101E5000049800900698103880B202900E220599DE
:101E6000079802FB010080B201902822DDE90213ED
:101E7000FFF7E4F9049800900698103880B20290B9
:101E80000F220599079802FB010080B201903022D1
:101E9000DDE90213FFF7D2F9049800900698103894
:101EA00080B2029011220599079802FB010080B2CE
:101EB00001902D22DDE90213FFF7C0F9049800908C
:101EC0000698103880B2029013220599079802FBF9
:101ED000010080B201903222DDE90213FFF7AEF972
:101EE000049800900698103880B202901422059948
:101EF000079802FB010080B201902922DDE902135C
:101F0000FFF79CF9049800900698203880B2029060
:101F1000079880B201903322DDE90213FFF78EF9B2
:101F2000049800900698203880B20290059907988E
:101F3000084480B201902E22DDE90213FFF77EF9FA
:101F4000049800900698203880B2029003220599E8
:101F5000079802FB010080B201904322DDE90213E1
:101F6000FFF76CF9049800900698203880B2029030
:101F700004220599079802FB010080B201906822B3
:101F8000DDE90213FFF75AF904980090069820380B
:101F900080B2029005220599079802FB010080B2E9
:101FA00001906F22DDE90213FFF748F904980090D1
:101FB0000698203880B2029006220599079802FB05
:101FC000010080B201906F22DDE90213FFF736F9BC
:101FD000049800900698203880B202900722059954
:101FE000079802FB010080B201907322DDE9021321
:101FF000FFF724F9049800900698203880B20290E8
:1020000008220599079802FB010080B20190652221
:10201000DDE90213FFF712F90498009006982038C2
:1020200080B202900A220599079802FB010080B253
:1020300001904322DDE90213FFF700F904980090B4
:102040000698203880B202900B220599079802FB6F
:10205000010080B201906F22DDE90213FFF7EEF874
:10206000049800900698203880B202900C220599BE
:10207000079802FB010080B201906C22DDE9021397
:10208000FFF7DCF8049800900698203880B20290A0
:102090000D220599079802FB010080B2019075227C
:1020A000DDE90213FFF7CAF804980090069820387B
:1020B00080B202900E220599079802FB010080B2BF
:1020C00001906D22DDE90213FFF7B8F80498009043
:1020D0000698203880B202900F220599079802FBDB
:1020E000010080B201906E22DDE90213FFF7A6F82D
:1020F000049800900698203880B202901122059929
:10210000079802FB010080B201902822DDE902134A
:10211000FFF794F8049800900698203880B2029057
:1021200012220599079802FB010080B2019031222A
:10213000DDE90213FFF782F8049800900698203832
:1021400080B2029014220599079802FB010080B228
:1021500001902D22DDE90213FFF770F8049800903A
:102160000698203880B2029016220599079802FB43
:10217000010080B201903522DDE90213FFF75EF81D
:10218000049800900698203880B202901722059992
:10219000079802FB010080B201902922DDE90213B9
:1021A000FFF74CF808B000BD00BFFEE7704770476E
:1021B0002DE9F04105460E4634484788B0F80080C6
:1021C0002A20FFF7CFFA2812FFF7C6FAE8B2FFF786
:1021D000C3FA08EB0501491EC1F30F20FFF7BCFA53
:1021E00008EB0501491EC8B2FFF7B6FA2B20FFF72E
:1021F000B9FA3012FFF7B0FAF0B2FFF7ADFAB91939
:10220000491EC1F30F20FFF7A7FAB919491EC8B23A
:10221000FFF7A2FA2C20FFF7A5FA00242BE01C48B8
:10222000006806280FD11B4830F8140028B91A4955
:1022300031F81400FFF790FA1CE0164931F8140049
:10224000FFF78AFA16E012480068012812DB1048EE
:10225000006805280EDC0F4830F8140028B90F4933
:1022600031F81400FFF778FA04E00A4931F8140055
:10227000FFF772FA641C08FB07F0A042CFD8314682
:10228000284600F061F8BDE8F0810000621A0108FC
:102290005C010020628A000898220108982A01083F
:1022A000F0B503460C4615462448468807882A2080
:1022B000FFF758FA1812FFF74FFAD8B2FFF74CFAA7
:1022C000F918491EC1F30F20FFF746FAF918491E05
:1022D000C8B2FFF741FA2B20FFF744FA2012FFF7AC
:1022E0003BFAE0B2FFF738FA3119491EC1F30F206B
:1022F000FFF732FA3119491EC8B2FFF72DFA2C2028
:10230000FFF730FA002213E00D4800EBC52030F84B
:10231000120028B90B4931F81200FFF71DFA06E048
:10232000074901EBC52131F81200FFF715FA521CDD
:1023300007FB06F09042E7D8F0BD0000621A0108E2
:1023400062520008982A010870B502460B462E48D2
:10235000458806882D480068401C012853DB2B481F
:102360000068401C06284EDC2A20FFF7FBF902F12A
:1023700020010812FFF7F0F902F12001C8B2FFF7BF
:10238000EBF9B1181F31C1F30F20FFF7E5F9B118D0
:102390001F31C8B2FFF7E0F92B20FFF7E3F918125D
:1023A000FFF7DAF9D8B2FFF7D7F9E918491EC1F3F8
:1023B0000F20FFF7D1F9E918491EC8B2FFF7CCF991
:1023C0002C20FFF7CFF9002419E010480068401CCA
:1023D000062804D10E4931F81400FFF7BDF90B4867
:1023E0000068401C012809DB08480068401C0528DB
:1023F00004DC084931F81400FFF7AEF9641C06FB51
:1024000005F0A042E1D870BD621A01085C0100200D
:1024100098220108982A0108704710B500F002F8C8
:1024200010BD00000CB500200190009033480068FA
:1024300040F480303149086000BF3048006800F443
:10244000003000900198401C0190009818B9019844
:10245000B0F5A06FF1D12948006800F4003010B148
:102460000120009001E0002000900098012843D155
:102470002348006840F010002149086008460068C1
:1024800020F0030008600846006840F00200086081
:102490001A4840681949486008464068486008463C
:1024A000406840F4806048600846406820F47C1032
:1024B00048600846406840F4E810486008460068F4
:1024C00040F08070086000BF0C48006800F00070A9
:1024D0000028F9D00948406820F003000749486007
:1024E0000846406840F00200486000BF034840686A
:1024F00000F00C000828F9D10CBD000000100240CB
:10250000002002402DE9FC4F8146AA252D240827F2
:1025100000264FF6FF7001900A2099FBF0FA99FB14
:10252000F0F100FB119B2146284600964322019BB7
:10253000FEF784FE2146E81900966F22019BFEF704
:102540007DFE2146022202FB075000967322019B6A
:10255000FEF774FE2146032202FB07500096742208
:10256000019BFEF76BFE2146042202FB07500096FA
:102570003A22019BFEF762FE4FF000081DE0C245C3
:102580000BD108F13003DAB2A1B2052303FB0753E4
:1025900098B20096019BFEF751FEC3450BD108F19E
:1025A0003003DAB2A1B2062303FB075398B20096B8
:1025B000019BFEF743FE08F10108B8F1090FDEDDCB
:1025C000BDE8FC8F2DE9F04F85B081468A46322563
:1025D0004FF491764FF0080800274FF6FF700490F3
:1025E0000A2099FBF0FB99FBF0F100FB119003909E
:1025F0000A209AFBF0F002900A209AFBF0F100FB0F
:1026000011A00190CA4577DC002473E0B1B2A8B2F2
:1026100000974B22049BFEF711FEB1B205EB0802B6
:1026200090B200976922049BFEF708FEB1B2022225
:1026300002FB085290B200976C22049BFEF7FEFD4D
:10264000B1B2032202FB085290B200976C22049BA5
:10265000FEF7F4FDB1B2042202FB085290B20097DB
:102660003A22049BFEF7EAFD0298A0420BD104F146
:102670003003DAB2B1B2052303FB085398B20097D6
:10268000049BFEF7DBFD0198A0420BD104F130035F
:10269000DAB2B1B2062303FB085398B20097049B49
:1026A000FEF7CCFDB1B2072202FB085290B20097B0
:1026B0002F22049BFEF7C2FDA3450BD104F130038A
:1026C000DAB2B1B2082303FB085398B20097049B17
:1026D000FEF7B4FD0398A0420BD104F13003DAB247
:1026E000B1B2092303FB085398B20097049BFEF78D
:1026F000A5FD641C092C89DD05B0BDE8F08F2DE92E
:10270000F04107468846202600242CE0002526E0DC
:1027100054B904FB068291B205FB067290B22B46B7
:102720002246FEF7B5FE18E0012C0AD104FB068212
:1027300091B205FB067290B22B462246FEF7A8FE28
:102740000BE0022C09D104FB068291B205FB067254
:1027500090B22B462246FEF79BFE681CC5B2072DA1
:10276000D6DB601CC4B2032CD0DBBDE8F0810000D6
:1027700070B502460B461D48458806882A20FEF79C
:10278000F1FF1012FEF7E8FFD0B2FEF7E5FFB11837
:10279000491EC1F30F20FEF7DFFFB118491EC8B272
:1027A000FEF7DAFF2B20FEF7DDFF1812FEF7D4FF4D
:1027B000D8B2FEF7D1FFE918491EC1F30F20FEF78A
:1027C000CBFFE918491EC8B2FEF7C6FF2C20FEF762
:1027D000C9FF002405E0064931F81400FEF7BCFFEC
:1027E000641C06FB05F0A042F5D870BDA4B0030838
:1027F000387B020870B505462026002407E004FB5C
:1028000006F022460021FEF761FF601CC4B2AC4214
:10281000F5DB70BD2DE9F84F8046AA253D244FF029
:10282000080B00264FF6FF790A2098FBF0F100FB19
:10283000118A214628464B4605220096FEF774FD74
:10284000214605F110004B4606220096FEF76CFD6E
:10285000214605F120004B463A220096FEF7EEFC99
:1028600000270DE0BA450AD107F13003DAB2A1B270
:1028700005F1280398B24B460096FEF7DFFC7F1C5B
:10288000092FEFDDBDE8F88F10B504462CB9002202
:102890003D210520FEF77AFE14E0052C05D101222A
:1028A0003D210520FEF772FE0CE0062C05D1022228
:1028B0003D210520FEF76AFE04E003223D210520AC
:1028C000FEF764FE10BD01B589B0002008904FF6F8
:1028D000FF700790082006901020059005200490B6
:1028E0002D20039040F2E731099888427DD0502096
:1028F00025238222002100900898FEF793FB089878
:102900000090039880B20290049880B20190432214
:10291000079B0299FEF792FC08980090039880B2FA
:10292000029006990498084480B201906C22079B9B
:102930000299FEF783FC08980090039880B20290F9
:1029400002220699049802FB010080B201906122E4
:10295000079B0299FEF772FC08980090039880B2DA
:10296000029003220699049802FB010080B20190B4
:102970007322079B0299FEF761FC08980090039868
:1029800080B2029004220699049802FB010080B2F2
:1029900001907322079B0299FEF750FC0898009063
:1029A000039880B2029005220699049802FB010068
:1029B00080B201903A22079B0299FEF73FFC0998EA
:1029C000002868D108980090039880B202900722EE
:1029D0000699049802FB010080B201905322079BE4
:1029E0000299FEF72BFC089800E035E2009003986E
:1029F00080B2029008220699049802FB010080B27E
:102A000001906E22079B0299FEF718FC089800902F
:102A1000039880B2029009220699049802FB0100F3
:102A200080B201906922079B0299FEF707FC089883
:102A30000090039880B202900A220699049802FB43
:102A4000010080B201907022079B0299FEF7F6FB0D
:102A500008980090039880B202900B22069904987F
:102A600002FB010080B201906522079B0299FEF7EC
:102A7000E5FB08980090039880B202900C2206991A
:102A8000049802FB010080B201907222079B029918
:102A9000FEF7D4FB39E2099801287ED1089800900E
:102AA000039880B2029007220699049802FB010065
:102AB00080B201904422079B0299FEF7BFFB089861
:102AC0000090039880B2029008220699049802FBB5
:102AD000010080B201906522079B0299FEF7AEFBD0
:102AE00008980090039880B20290092206990498F1
:102AF00002FB010080B201906622079B0299FEF75B
:102B00009DFB08980090039880B202900A220699D3
:102B1000049802FB010080B201906522079B029994
:102B2000FEF78CFB08980090039880B202900B226D
:102B30000699049802FB010080B201906E22079B67
:102B40000299FEF77BFB08980090039880B20290F0
:102B50000C220699049802FB010080B201906422C5
:102B6000079B0299FEF76AFB08980090039880B2D1
:102B700002900D220699049802FB010080B2019098
:102B80006522079B0299FEF759FB0898009003986D
:102B900080B202900E22069900E00AE0049802FB3F
:102BA000010080B201907222079B0299FEF746FB5A
:102BB000ABE10998022802D0099803287DD1089832
:102BC0000090039880B2029007220699049802FBB5
:102BD000010080B201905622079B0299FEF72EFB5E
:102BE00008980090039880B20290082206990498F1
:102BF00002FB010080B201906122079B0299FEF75F
:102C00001DFB08980090039880B202900922069953
:102C1000049802FB010080B201906E22079B02998A
:102C2000FEF70CFB08980090039880B202900A22ED
:102C30000699049802FB010080B201906722079B6D
:102C40000299FEF7FBFA08980090039880B2029070
:102C50000B220699049802FB010080B201907522B4
:102C6000079B0299FEF7EAFA08980090039880B251
:102C700002900C220699049802FB010080B2019098
:102C80006122079B0299FEF7D9FA089800900398F1
:102C900080B202900D220699049802FB010080B2D6
:102CA00001907222079B0299FEF7C8FA08980090DB
:102CB000039880B202900E2200E00BE0069904987F
:102CC00002FB010080B201906422079B0299FEF78B
:102CD000B5FA1AE10998042855D10898009003988C
:102CE00080B2029007220699049802FB010080B28C
:102CF00001904722079B0299FEF7A0FA08980090DE
:102D0000039880B2029008220699049802FB010001
:102D100080B201907522079B0299FEF78FFA0898FE
:102D20000090039880B2029009220699049802FB51
:102D3000010080B201906122079B0299FEF77EFAA2
:102D400008980090039880B202900A22069904988D
:102D500002FB010080B201907222079B0299FEF7EC
:102D60006DFA08980090039880B202900B220699A1
:102D7000049802FB010080B201906422079B029933
:102D8000FEF75CFAC1E00998052866D10898009022
:102D9000039880B2029007220699049802FB010072
:102DA00080B201904322079B0299FEF747FA0898E8
:102DB0000090039880B2029008220699049802FBC2
:102DC000010080B201906122079B0299FEF736FA5A
:102DD00008980090039880B20290092206990498FE
:102DE00002FB010080B201907322079B0299FEF75B
:102DF00025FA08980090039880B202900A2206995A
:102E0000049802FB010080B201907422079B029992
:102E1000FEF714FA08980090039880B202900B22F3
:102E20000699049802FB010080B201906522079B7D
:102E30000299FEF703FA08980090039880B2029076
:102E40000C220699049802FB010080B201907222C4
:102E5000079B0299FEF7F2F957E00998062854D12A
:102E600008980090039880B202900722069904986F
:102E700002FB010080B201904D22079B0299FEF7F0
:102E8000DDF908980090039880B202900822069914
:102E9000049802FB010080B201906522079B029911
:102EA000FEF7CCF908980090039880B202900922AE
:102EB0000699049802FB010080B201906422079BEE
:102EC0000299FEF7BBF908980090039880B202902F
:102ED0000A220699049802FB010080B2019069223F
:102EE000079B0299FEF7AAF908980090039880B210
:102EF00002900B220699049802FB010080B2019017
:102F00006322079B0299FEF799F90AB000BD000001
:102F100007480078401C0649087006480078401CA5
:102F20000449087004480078401C03490870704741
:102F300000000020010000200200002010B513480E
:102F4000006840F0010011490860084640681049D7
:102F500008400E494860084600680E4908400B4981
:102F600008600846006820F4802008600846406831
:102F700020F4FE0048604FF41F008860FFF74DFA10
:102F80004FF000600449086010BD000000100240CE
:102F90000000FFF8FFFFF6FE08ED00E010B5234A41
:102FA00091FBF2F230320270214A91FBF2F20A23D5
:102FB00092FBF3F403FB1422303242701D4A91FB62
:102FC000F2F292FBF3F403FB14223032827042F2ED
:102FD000107291FBF2F292FBF3F403FB14223032F5
:102FE000C2704FF47A7291FBF2F292FBF3F403FB9E
:102FF000142230320271642291FBF2F292FBF3F45C
:1030000003FB1422303242710A2291FBF2F292FB4E
:10301000F3F403FB1422303282710A2291FBF2F3A3
:1030200002FB13123032C27110BD0000809698006E
:1030300040420F00A086010010B5024600201EE0AD
:10304000012A0AD10B5C104C238000BF0E4B1B1FC2
:103050001B8803F08003002BF8D0022A0AD10B5CF6
:103060000A4C238000BF094B1B1F1B8803F0800301
:10307000002BF8D0FC2800D104E0431CD8B20B5C34
:10308000002BDDD100BF10BD0438014004440040D6
:1030900000BFFEE78CB000200A90099083464FF6EF
:1030A000FF700890FBA103C9CDE90601FDF7F6FF0B
:1030B000FDF77EFEFEF7BEFBFDF7F4FE4FF4165162
:1030C0004820FEF755FBFDF7F5FD1EE3F3480068C9
:1030D000002857D1FDF782FEF148FDF794FD4FF42B
:1030E000A0700023F022194600905846FDF79AFF81
:1030F0005F210020FFF73CFB5946089800F01EFBBB
:103100000020FDF7B3FD0A900A9801F05EF94FF038
:103110006632E44BCDE9000101F06AF90022E24B8E
:10312000CDE9020100F0CAFFCDE9040101F01EF96A
:10313000099006A80999FFF731FF06A90120FFF7BA
:103140007BFFDAA10120FFF777FF19E0D84800687C
:1031500000F00800A0B90120D0490860FEF7BCFBD0
:103160004FF00A094FF0820A0A2582260527D04827
:103170000838006820F44020CD490839086000E094
:10318000E4E700BFC548006801287DD10520FDF7B0
:10319000C3FEFDF7D5FEFDF737FF00F057FC4FF4F7
:1031A000A0700023F022194600905846FDF73AFF20
:1031B00001202323F022002100904CF21860FDF73B
:1031C00031FFBC480068FFF79DF931462846FFF7FC
:1031D00096FA0720FFF70EFBFEF738FC63E2FDF7D7
:1031E00015FBB5480068401EB349086008460068F2
:1031F00038B944F6206008600020B0490860B04942
:103200000860B048007800F033FFAF4801683846E6
:10321000FFF7D8F9A7480068FFF774F9AB480068D2
:10322000FFF7F8FAAA48007846280BDB0020A849E7
:103230000870A0480068622804DC9E480068401CB2
:103240009C490860A3480068B8427DDC9D4800782E
:10325000002879DBA0480078FA28FADB00209E4994
:103260000870FCF7D5FF032190FBF1F201FB120877
:103270009A480068401C002853D098484068401C79
:1032800000284ED000244AE00FE2954850F8341050
:1032900092480068401E814240D1914800EBC40032
:1032A00041688E484068401E814237D18D4850F8B1
:1032B00024008D490968884224DC894800EBC40059
:1032C0004268874850F83410204600F0FFFC012087
:1032D000834901EBC4014968C1EBC101834A02EB98
:1032E00081017F4A52F8342041F82200801E7C4937
:1032F00041F8340001EBC40148600020794941F8ED
:1033000024000BE000207A490860764850F8240039
:1033100075490968401A734941F82400641C072C58
:10332000B3DB7348006800283BDC6C480068C0B31E
:103330006A484068C0EBC0006C4901EB80006749F7
:10334000096850F8210000E0FEE001281FD1DFF8F5
:103350008CC1BCF800C01FFA8CF3DFF880C1BCF848
:1033600004C01FFA8CF2DFF874C1DCF804C04FF01F
:10337000200E0EFB0C6C1FFA8CF1DFF860C1DCF83C
:1033800000C00EFB0C5C1FFA8CF0FEF781F84E4873
:103390000068401C4C4908604FF0FF304F490860FE
:1033A00048604E480068062809DC4C480068002840
:1033B00005DD4A480068401E484908605FE047480C
:1033C0000068E8BB3F480078401E3E4908704FF453
:1033D000001048490860401308604748FDF713FC97
:1033E000202044490860C004086044480068401C2C
:1033F00042490860DFF8E4C0BCF800C00CF1010CE1
:103400001FFA8CF3DFF8D4C0BCF804C01FFA8CF2AA
:10341000DFF8C8C0DCF804C04FF0200E0EFB0C6CC7
:103420001FFA8CF1DFF8B4C0DCF800C00CF1010C1D
:103430000EFB0C5C1FFA8CF0FEF72AF8062000E069
:103440000EE0264908600846C0F80480214800685C
:10345000401C204908602A480068254908600EE0A1
:1034600006201E4908600846C0F804801948006814
:10347000401C18490860224800681D490860174828
:103480000068002860DD1548006807285CDA002421
:1034900040E000002D2D2D2D2D2D2D0008000020A9
:1034A00040420F0066660A400000B0400A0D00006E
:1034B00008180140200000202C00002030000020CF
:1034C000340000200C000020100000202400002008
:1034D0000000002028000020010000205C010020E6
:1034E000D0000020600000206401002008010020BE
:1034F00068010020100C0140A0860100040000209B
:103500006C01002081484068A04200D104E00AF12B
:10351000200A641C032CF5DB00BF002407E07B4875
:103520000068A04200D104E009F12009641C072CC6
:10353000F5DB00BF1FFA8AF11FFA89F0FEF738FEAB
:103540004FF00A094FF0820A714800781E2876DB96
:1035500000206F4908706D484068C0EBC0006D499D
:1035600001EB80006949096850F8210000282BDD33
:1035700066484068401C38B364480068401C18B373
:1035800062484068C0EBC000624901EB80005F49BF
:10359000096850F8210060490968081A002803DC0E
:1035A00000205D4908600FE058484068C0EBC0004B
:1035B000584901EB80005549096850F821005649E7
:1035C0000968081A5449086000244FE0534850F82D
:1035D0003400401C90B3514800EBC4004068401CCC
:1035E00060B34E4800EBC4004068C0EBC0004C49DB
:1035F00001EB8000494951F8341050F821000028AF
:1036000033DD464800EBC4004068C0EBC0004449CD
:1036100001EB8000414951F8341050F82100414934
:1036200051F824100844404951F82410884207DB1F
:103630003D4850F824003B4941F8240015E017E0CC
:10364000364800EBC4004068C0EBC000344901EBD1
:103650008000324951F8341050F82100314951F8B6
:10366000241008442F4941F82400641C072CADDBCA
:103670002E480068032806D02C4800682C490968A9
:103680000844B8420FD12A4801683846FEF79AFF2D
:1036900026480068032802D1002000F0E9FC02203F
:1036A0002449086000E09AE500BF2248006802282B
:1036B0002BD1FDF793FB1D48006803280DD14FF473
:1036C000A0700023F022194600905846FDF7AAFC8E
:1036D00064210020FDF7A0FF03E086210020FDF714
:1036E0009BFF10E01448006800F0080058B9002063
:1036F000104908601048001D006840F008000E499D
:10370000091D086000E0EDE700BFDFE45C01002078
:10371000020000207001002068010020D00000207D
:10372000C4010020600000204400002004000020AC
:10373000100000200800002008180140F8B50546D8
:103740000C464CF679662B46312202213C2000942F
:10375000FDF774FD2B463122022144200094FDF731
:103760006DFD2B46352202214C200094FDF766FDAD
:103770002B463522022154200094FDF75FFD2B4695
:10378000312202215C200094FDF758FD2B463422A3
:10379000022164200094FDF751FD2B4632220221C4
:1037A0006C200094FDF74AFD2B4633220221742041
:1037B0000094FDF743FD2B46372202217C20009424
:1037C000FDF73CFD2B463322022184200094FDF7B7
:1037D00035FD2B46312214213C200094FDF72EFDAF
:1037E0002B463122142144200094FDF727FD2B465F
:1037F000352214214C200094FDF720FD2B46352264
:10380000142154200094FDF719FD2B463122142178
:103810005C200094FDF712FD2B4634221421642015
:103820000094FDF70BFD2B46342214216C200094EC
:10383000FDF704FD2B463022142174200094FDF77F
:10384000FDFC2B46392214217C200094FDF7F6FC68
:103850002B463822142184200094FDF7EFFC2B46E0
:103860000022022101200094FDF75EFD2B4601227B
:10387000022114200094FDF757FD2B460222114629
:1038800028200094FDF750FD2B460322162101202D
:103890000094FDF749FD2B460422162114200094C4
:1038A000FDF742FD2B460222162128200094FDF749
:1038B0003BFD33463E224D2110200094FDF7BEFC17
:1038C000334650224D2120200094FDF7B7FC3346AB
:1038D00072224D2128200094FDF7B0FC334665226A
:1038E0004D2130200094FDF7A9FC334673224D2171
:1038F00038200094FDF7A2FC334673224D2140206E
:103900000094FDF79BFC33464B224D215020009440
:10391000FDF794FC334645224D2158200094FDF7D5
:103920008DFC334659224D2160200094FDF786FC22
:10393000334630224D2168200094FDF77FFC33464A
:1039400074224D2178200094FDF778FC33466F22D5
:103950004D2180200094FDF771FC334663224D21F8
:1039600090200094FDF76AFC33466F224D21982089
:103970000094FDF763FC33466E224D21A020009495
:10398000FDF75CFC334674224D21A8200094FDF71E
:1039900055FC334669224D21B0200094FDF74EFCC2
:1039A00033466E224D21B8200094FDF747FC334684
:1039B00075224D21C0200094FDF740FC334665225E
:1039C0004D21C8200094FDF739FC33463C224D219F
:1039D000D8200094FDF732FC2B4647224FF4967115
:1039E000A9200094FDF72AFC2B4652224FF4967131
:1039F000B1200094FDF722FC2B464F224FF4967124
:103A0000B9200094FDF71AFC2B4655224FF496710D
:103A1000C1200094FDF712FC2B4650224FF4967102
:103A2000C9200094FDF70AFC2B4631224FF4967111
:103A3000D9200094FDF702FC2B4630224FF49671FA
:103A4000E1200094FDF7FAFBF8BD000010B5224913
:103A50000120FFF7F1FA21490120FFF7EDFA20A13B
:103A60000120FFF7E9FA25A10120FFF7E5FA30A1CF
:103A70000120FFF7E1FA3AA10120FFF7DDFA45A1A5
:103A80000120FFF7D9FA51A10120FFF7D5FA56A17D
:103A90000120FFF7D1FA5BA10120FFF7CDFA60A169
:103AA0000120FFF7C9FA65A10120FFF7C5FA6AA155
:103AB0000120FFF7C1FA6FA10120FFF7BDFA74A141
:103AC0000120FFF7B9FA79A10120FFF7B5FA7E4985
:103AD0000120FFF7B1FA10BDB0B0030800B1030830
:103AE0000A0D7E7E7E7E7E7E47616D65706C61799B
:103AF0007E7E7E7E7E7E200A0D0000000A0D312E25
:103B00002043686F6F736520796F7572204F706501
:103B10007261746F727320746F20666967687420B5
:103B20002849443A2030202D2036290A0D00000073
:103B30000A0D322E2043686F6F736520746865200C
:103B4000526F7720796F752077616E6E6120707586
:103B500074206F6E202830202D2032290A0D00009D
:103B60000A0D332E2043686F6F73652074686520DB
:103B7000436F6C756D6E20796F752077616E6E6125
:103B800020707574206F6E202831202D2035290A71
:103B90000D0000000A0D2A2A205072657373202739
:103BA0002B2720666F7220657665727920737465A5
:103BB000707320796F7527766520636F6D706C6503
:103BC000746521202A2A200A0D0000000A0D2B3DD1
:103BD0003D3D3D3D5B53746174735D3D3D3D3D3DF9
:103BE0003D2B200A0D0000000A0D7B307D20506C1B
:103BF0006174696E756D202020205B31315D200A73
:103C00000D0000000A0D7B317D204D7564726F63DD
:103C10006B20202020205B33325D200A0D00000045
:103C20000A0D7B327D2054657861202020202020E1
:103C300020205B31315D200A0D0000000A0D7B332E
:103C40007D2057696E6420202020202020205B31B9
:103C5000315D200A0D0000000A0D7B347D20536B7E
:103C6000616469202020202020205B31375D200AFC
:103C70000D0000000A0D7B357D2045796A61666A7A
:103C8000616C6C6120205B31395D200A0D00000001
:103C90000A0D7B367D204E696768746E69676C65B6
:103CA00020205B31365D200A0D0000000A0D2B3DFF
:103CB0003D3D3D3D3D3D3D3D3D3D3D3D3D3D3D3D34
:103CC0003D2B200A0D00000060B10308F0B503464B
:103CD0000C46002B76D1032524BB002120E00020D8
:103CE0001AE01618062E00D118E0C1EBC106DD4F10
:103CF00007EB8606171856F82760DB4F57F8237036
:103D0000F61BC1EBC107DFF85CC30CEB870702EBC6
:103D1000000C47F82C60401CA842E2DD00BF491CA3
:103D20000229DCDB012C24D1002120E000201AE054
:103D30001618062E00D118E0C1EBC106C94F07EBDB
:103D40008606171856F82760C74F57F82370F61BDA
:103D5000C1EBC107DFF80CC30CEB870702EB000CCB
:103D600047F82C60401CA842E2DD00BF491C032933
:103D7000DCDB022C24D1012120E000201AE01618FF
:103D8000062E00D118E0C1EBC106B64F07EB860640
:103D9000171856F82760B44F57F82370F61BC1EB7D
:103DA000C107DFF8C0C20CEB870702EB000C47F835
:103DB0002C60401CA842E2DD00BF491C0329DCDB6B
:103DC0004EE1FFE7052B75D17CBB002011E01618F2
:103DD000062E00D10FE01618A24F57F82660A24F0A
:103DE00057F82370F61B1718DFF878C24CF82760D5
:103DF000401C0328EBDD00BF002013E01618062E40
:103E000000D111E01718974E1C3656F82760964FD0
:103E100057F82370F71B02EB000C924E1C3646F845
:103E20002C70401C0228E9DD00BF012C3ED100208F
:103E300013E01618062E00D111E01718894E1C3613
:103E400056F82760884F57F82370F71B02EB000CD9
:103E5000844E1C3646F82C70401C0328E9DD00BF58
:103E6000002020E01618062E00D11EE016187D4F07
:103E700057F826607C4F57F82370F61B1718DFF8A9
:103E8000E4C14CF8276017180CF1380656F8276083
:103E9000754F57F82370F71B02EB000C714E383644
:103EA00046F82C70401C0228DCDD00BF022C87D1B4
:103EB000002014E02FE01618062E00D111E017188C
:103EC000684E383656F82760674F57F82370F71B4F
:103ED00002EB000C634E383646F82C70401C032869
:103EE000E9DD00BF002013E01618062E00D111E016
:103EF00017185C4E1C3656F827605B4F57F8237036
:103F0000F71B02EB000C574E1C3646F82C70401C79
:103F10000228E9DDA4E0062B79D103252CBB002182
:103F200021E000201BE01618062E00D119E0C1EB9D
:103F3000C1064E4F07EB86071618761E57F8266007
:103F4000494F57F82370F71BC1EBC106DFF81CC1BE
:103F50000CEB860C1618761E4CF82670401CA842F6
:103F6000E1DD00BF491C0229DBDB012C25D100214A
:103F700021E000201BE01618062E00D119E0C1EB4D
:103F8000C1063A4F07EB86071618761E57F82660CB
:103F9000354F57F82370F71BC1EBC106DFF8CCC0D3
:103FA0000CEB860C1618761E4CF82670401CA842A6
:103FB000E1DD00BF491C0329DBDB022C50D10121CC
:103FC00021E000201BE01618062E00D119E0C1EBFD
:103FD000C106264F07EB86071618761E57F826608F
:103FE000214F57F82370F71BC1EBC106DFF87CC0E7
:103FF0000CEB860C1618761E4CF82670401CA84256
:10400000E1DD00BF491C0329DBDB29E0FFE7C4EB4E
:10401000C406144F07EB860656F82260124F57F875
:1040200023703E44C4EBC407DFF838C00CEB8707AD
:1040300047F82260561C062E12D0C4EBC406674611
:1040400007EB8607561C57F82660074F57F8237072
:10405000F71BC4EBC4060CEB860C561C4CF8267000
:10406000F0BD0000700100207C000020C401002091
:104070002DE9F847054690264FF48C774FF020083D
:104080004FF000094FF6FF7A00240EE0AC420BD14E
:1040900004F13003DAB2B9B206EB080398B2534622
:1040A000CDF80090FDF7CAF8641C092CEEDDB9B21A
:1040B000B0B2FDF7ABF9BDE8F88700002DE9C041CB
:1040C00030B4DFF8A0C23CEA111418BF3CEA131464
:1040D00000F0EC8081EA03051CEA111444EAD5746F
:1040E00018BF1CEA131500F0C780A4EB05044FF0BD
:1040F000004545EAC12145EAC32341EA505143EA5C
:10410000525304F17F74994204F500344FEAC02001
:104110004FEAC22208BF904200F09C804FEA13652C
:104120000FF24016765D4FEA134506FB05F7C7F11F
:10413000807706FB07F74FEAD737A7FB036876427D
:10414000C8F58038A7FB06CE38BFA8F1010807FBE9
:1041500008E64FF0000EA6FB028CE6FB03CEDCF176
:10416000000CCEF1004E38BFAEF1010EA6FB0C588C
:104170004FF000074FF00005E6FB0E87A1FB08C6D5
:10418000A0FB07CE16EB0E0645F10005E1FB076527
:1041900015F1E04E7EBFA4F580345FEA46066D411E
:1041A00016F1800745F100054FEA17274FEA06662A
:1041B00047EA0567A6F1DE46B6F1805F4FEA1525AE
:1041C0001FD9384624F0010C05EBC471BCF1FE6F19
:1041D00001EB0C1102D8F0BCBDE8008124425CBFA9
:1041E00001F5801E9EEAC47F02D4F0BCBDE80081C8
:1041F000244238D4F0BCA1F1C041BDE8004100F038
:10420000EFB94FEAD22242EA43524FEAD323A7FB47
:1042100002864FEAD02040EA415007FB03661EEABF
:104220000E0F4FEAD12105FB026658BFA6EB0056E0
:10423000B6EB00564FEA520E4EEAC37E18EB0E0E56
:1042400056EB530EBDD518EB02085E417F1C55F1AD
:104250000005B6E74FF480154FF000074FF0000659
:104260004FF00008ADE7F0BC4FF0000001F1C04195
:1042700001F00041BDE8008111EA0C1F0CEA1315A2
:1042800000D00CE013EA0C1F00F025804FF0000076
:10429000F0BC81EA030101F00041BDE80081F0BCFF
:1042A000BDE8004181EA030100F09AB9F0BCBDE825
:1042B000004170B500F046F9097EFC3E00F007B8F9
:1042C00081EA03014FF0000001F00041704781EAEC
:1042D000030100F085B9F0BCBDE800414FF00000DB
:1042E00021497047FFFDFBF9F7F5F4F2F0EEEDEB35
:1042F000E9E8E6E4E3E1E0DEDDDBDAD8D7D5D4D3E4
:10430000D1D0CFCDCCCBCAC8C7C6C5C4C2C1C0BF2F
:10431000BEBDBCBBBAB9B8B7B6B5B4B3B2B1B0AF35
:10432000AEADACABAAA9A8A8A7A6A5A4A3A3A2A119
:10433000A09F9F9E9D9C9C9B9A99999897979695D4
:1043400095949393929191908F8F8E8E8D8C8C8B70
:104350008B8A8989888887878685858484838382F8
:10436000828181800000FF070000F87F4FEA41034F
:104370004FEA5353A3F58063D3F11E03C8BFD3F1B3
:10438000210C0CDD4FF0004242EAC12242EA5052B9
:1043900032FA03FC8CEAE17CACEBE1707047102B45
:1043A000C4BF0020704703F5787CBCF1FF3F04D008
:1043B0006FF0004282EA2100704770B500F0C2F849
:1043C0004992248000207047F2E7B0FA80F310FA97
:1043D00003F10AD0C3F11D0303F580634FEA415096
:1043E0004FEA035202EBD12170474FF000007047B3
:1043F000DFF848C170B51CEA111E1EBF1CEA131578
:104400009EEA0C0F95EA0C0F00F06F8081EA03041E
:1044100023EA4C134EEAD47E21EA4C1141F4801178
:1044200043F48013AE44A1FB024CA0FB0365AEF144
:104430007F7E361955EB0C05A1FB034C4CF10003B4
:10444000A0FB021C16EB0C06654153F10003094268
:1044500018BF46F0010613F4007F0BD14FEA033179
:104460004FEA0530340341EA155140EA16506FF027
:1044700003020AE04FEAC3214FEAC520F40241EAF1
:10448000555140EA56506FF0020202EB2E4201EB0A
:10449000025585EACE710AD05FEA440C18BF24F0B9
:1044A000004450F1000041F1000120EAD47040F2D4
:1044B000FE7C624500D270BDA84214BF4FF080441C
:1044C0004FF04044002E08BF0024BEF1806FA8BF0B
:1044D000A1F1C041BDE8704080F282804FF0000041
:1044E00001F1C04101F0004170479EEA0C0F0CEA57
:1044F000131518BF95EA0C0F06D04FF0000081EAA3
:10450000030E0EF0004170BD00F01CF88900013E62
:1045100000F007B800F009B84FEA430C5FEA5C5CB2
:1045200008D081EA030100F05BB84FEA410C5FEA72
:104530005C5CF6D14FF00000014970470000FF07B6
:104540000000F87F0EF1020E2EF0030E5EF8046BF1
:10455000364205D4012A43EB030515F5001F12D896
:10456000012841EB010C1CF5001F0CD80ED14FEABD
:10457000D17C15F5001F0CEB4C0C0CF1020C08BFA4
:104580004CEBD37C04E04FF0080C01E04FEAD37C05
:104590000CEB4C0526FA05F606F00706B6F1040CFE
:1045A00006D20EEB860CBDE870404CF0010C604763
:1045B000DFE80CF0090B02024FF000414FF0000061
:1045C000A1F5002170BD19461046012851EB0104E8
:1045D00018BFD4F5001484BF002001F0004170BD65
:1045E0000808A0F500114FEA3101704790EA010F69
:1045F00048BF81F0004100F12E82421A3CBF801A70
:1046000089184FEAD0524FF07F4C1CEA410FA2EBC1
:10461000D15318BF9CEA026F00F03B804FF0004C72
:104620004CEA00204CEA012121FA03FC10EB0C0CAF
:104630001ED202F1FF325FEA1C2040EBC25038BFAD
:1046400070471CF07F0F4FEA400C18BFBCF17F4F42
:1046500038BF7047C3F12003994008BF20F0010024
:10466000BCF17F4F38BF7047A0F1C04000F0DDB90A
:104670004FEA3C00000A40EBC25028BF1CF0FF0F7D
:104680004FEA400CE6D018BFBCF17F4F38BF7047EF
:10469000EAE79CEA026F05D010EA5C0F08BF00F061
:1046A0000040704710B500F07AF900BF64FBBE3ED1
:1046B0004FF47F0C1CEAD0121EBF1CEAD11392EA01
:1046C0000C0F93EA0C0F00F0858090EA010F48BFB1
:1046D00042F4807240F4000C41F400002CF07F4161
:1046E00020F07F4000B58142A2EB03020FF2081CCC
:1046F000ACEB504EC0F100009EF800E04FEA4E0EC9
:1047000000FB0EFC38BF49004FEA2C1C02F5FA02F0
:104710000CFB0EF34FEACE1E4FEA112C4FEAC121DB
:104720000EEB635E42EB22420EFB0CFC4FEA1C5385
:1047300000FB03114FEA112C4FEA01310EFB0CFC78
:104740004FEADC4C00FB0C11C14228BF09184CEBAE
:1047500003335DF804EB10EB410143EBC250B2F5BB
:104760007C0F38BF704729D512F0F00F1CBF00F145
:10477000C04000F0004070470081828384858687B6
:1047800088898B8C8D8E8F919293959697999A9C10
:104790009D9FA0A2A3A5A7A8AAACAEB0B2B3B5B77F
:1047A000B9BCBEC0C2C5C7C9CCCED1D4D7D9DCDF55
:1047B000E2E6E9ECF0F3F7FAFE0000004FEA400C05
:1047C0000CF1807CBCF17E4F28BF7047B0F1C04037
:1047D00000F02BB990EA010F0CEAD11348BF42F464
:1047E0008072624538BF634507D213F47F0F16D03D
:1047F00080EA010000F00040704710B500F0CFF8EB
:10480000097EFC3E00F005B880EA010000F000409F
:10481000704780EA010000F0004000F006B912F491
:104820007F0F04BF0248704780EA010000F0FDB826
:104830000000C07FC10DD1F19E0206DB4FEA0023CC
:1048400043F0004323FA02F07047004207D54FEAD5
:104850004001B1F1FE4F02D24FF00000704710B599
:1048600000F09DF849922480002070476FEA2000F4
:1048700070470000B0FA80F310FA03F2C3F19D0311
:104880000AD0D90501EB1220530638BF704700F15A
:10489000010008BF20F00100704700004FF47F0CBA
:1048A0001CEAD0121EBF1CEAD11392EA0C0F93EA45
:1048B0000C0F00F0478090EA010F48BF42F480726D
:1048C0004FF0004C4CEA00204CEA012102EB0302BD
:1048D000A0FB0113A2F50002002918BF43F0010359
:1048E0005B0028BF4FEA330342EB22425FEA132CFE
:1048F0004CEBC2502EBFBCEB436FB2F57C0F704740
:104900004FEA036CBCF1004F08BF20F00100B2F584
:104910007C0F38BF70470BD582F0FF0212F5803F45
:10492000C8BF704700F1C040D8BF00F000407047DA
:1049300000F5000C5FEA4C0C48BF7047B0F1C04076
:1049400000F073B890EA010F0CEAD11348BF42F4AB
:104950008072624538BF634504D280EA010000F0EE
:104960000040704710B500F01AF800BF8900013E02
:1049700000F007B800F009B85FEA410C5FEA1C6C70
:1049800008D080EA010000F050B85FEA400C5FEA0E
:104990001C6CF6D14FF00040A0F5800070470EF17E
:1049A000020E2EF0030E5EF8044B244204D44FEAAC
:1049B0004102B2F17F4F11D84FEA4003B3F17F4F6C
:1049C0000CD80ED14FEAD07CB2F17F4F0CEB4C0CDF
:1049D0000CF1020C08BF4CEBD17C04E04FF0080C4A
:1049E00001E04FEAD17C0CEB4C0324FA03F404F011
:1049F0000704B4F1040C06D20EEB840CBDE81040A1
:104A00004CF0010C6047DFE80CF0070802024FF0A1
:104A10000040A0F5800010BD0846420018BFD2F14A
:104A2000807288BF00F0004010BDFF2141EAD050E5
:104A3000C005704780F0004090EA010F7FF5DDADC2
:104A400081F0004100F007B890EA010F48BF81F003
:104A500000413FF5D2AD421A04D882F00042A0EBEB
:104A6000020011444FEAD0524FF07F4C1CEA410F34
:104A7000A2EBD15318BF9CEA026F4AD04FF0004C12
:104A80004CEA00204CEA012121FA03FCB0EB0C0CAB
:104A90000FD412F0FE0F36D05FEA4C001DD5001285
:104AA00040EBC25038BF70471CF03F0F18BF704733
:104AB0000BE0A2F101025FEA1C2040EBC25038BFBC
:104AC00070471CF07F0F18BF7047C3F12003994057
:104AD00014BF401E20F00100704780084FEA1223E7
:104AE00008BF7047B0FA80FCA2EB0C02CCF1280C96
:104AF00060FA0CF093EA122F04BF00EBC25070472B
:104B00004FEAC3707047130A5FEADC1008BF7047B2
:104B1000F6E79CEA026F04D010EA5C0F08BF0020A1
:104B2000704710B5FFF73BFF40DFF63E81F00040D5
:104B300070470000000000000000000000000000BE
:104B400000000000000000001FCC000C000000006E
:104B50000000000008003000600008003000600025
:104B60000000022003FC1E20022003FC1E20022065
:104B7000000000000E1811043FFF10840C780000A4
:104B800000000F0010840F3800C0077818840078E8
:104B9000000000780F8410C411240E9800E40084F3
:104BA000000808006800700000000000000000001D
:104BB000000000000000000007E018182004400278
:104BC0000000000040022004181807E00000000068
:104BD00000000240024001800FF0018002400240CC
:104BE00000000080008000800FF8008000800080BE
:104BF00000000001000D000E000000000000000099
:104C000000000000008000800080008000800080A4
:104C100000800000000C000C0000000000000000FC
:104C20000000000000060018006001800600180067
:104C30002000000007F0080810041004080807F01E
:104C400000000000080408041FFC00040004000029
:104C5000000000000E0C10141024104411840E0CDF
:104C6000000000000C1810041104110412880C70CC
:104C70000000000000E00320042408241FFC00249E
:104C8000000000001F981084110411041088107097
:104C90000000000007F00888110411041888007053
:104CA000000000001C00100010FC13001C0010008D
:104CB000000000000E3811441084108411440E3896
:104CC000000000000700088C10441044088807F01A
:104CD0000000000000000000030C030C00000000B6
:104CE00000000000000000010106000000000000BC
:104CF0000000000000800140022004100808100499
:104D000000000220022002200220022002200220B5
:104D10000000000010040808041002200140008078
:104D2000000000000E001200100C106C10800F002C
:104D3000000003E00C1813E4142417C4082807D05B
:104D400000000004003C03C41C40074000E4001CB9
:104D5000000410041FFC1104110411040E880070DB
:104D6000000003E00C1810041004100410081C10BC
:104D7000000010041FFC100410041004080807F0C1
:104D8000000010041FFC1104110417C410040818BB
:104D9000000010041FFC1104110017C010000800CF
:104DA000000003E00C181004100410441C780040AC
:104DB000000010041FFC10840080008010841FFC81
:104DC00010040000100410041FFC10041004000064
:104DD000000000030001100110011FFE1000100070
:104DE000000010041FFC110403801464181C10043C
:104DF000000010041FFC1004000400040004000C58
:104E0000000010041FFC1F0000FC1F001FFC10040A
:104E1000000010041FFC0C04030000E010181FFC2D
:104E2000100007F00808100410041004080807F028
:104E3000000010041FFC10841080108010800F00F0
:104E4000000007F0081810241024101C080A07F2AC
:104E5000000010041FFC1104110011C011300E0CD1
:104E6000000400000E1C11041084108410441C382F
:104E700000001800100010041FFC1004100018009F
:104E8000000010001FF810040004000410041FF8B4
:104E9000100010001E0011E0001C007013801C00A8
:104EA00010001FC0103C00E01F0000E0103C1FC0BD
:104EB00000001004180C163401C001C01634180C80
:104EC000100410001C00130400FC13041C0010004C
:104ED00000000804101C1064108413041C04101833
:104EE00000000000000000007FFE4002400240027F
:104EF0000000000030000C0003800060001C000374
:104F0000000000004002400240027FFE000000005E
:104F10000000000000002000400040004000200091
:104F2000000000010001000100010001000100017A
:104F300000010000400040002000000000000000D0
:104F4000000000000098012401440144014400FCD9
:104F5000000410001FFC0088010401040088007098
:104F600000000000007000880104010401040088B2
:104F700000000000007000880104010411081FFCFB
:104F80000004000000F8014401440144014400C849
:104F900000000000010401040FFC110411041100C1
:104FA0001800000000D601290129012901C90106C4
:104FB000000010041FFC008401000100010400FC3B
:104FC000000400000104190419FC0004000400009E
:104FD00000000000000300010101190119FE00009A
:104FE000000010041FFC0024004001B4010C010467
:104FF00000000000100410041FFC00040004000066
:105000000000010401FC0104010001FC0104010095
:1050100000FC010401FC008401000100010400FC0B
:105020000004000000F8010401040104010400F878
:105030000000010101FF00850104010400880070E7
:10504000000000000070008801040104010501FF58
:1050500000010104010401FC00840104010001803D
:105060000000000000CC0124012401240124019847
:10507000000000000100010007F801040104000025
:105080000000010001F8000400040004010801FC14
:105090000004010001800170000C0010016001801B
:1050A000010001F0010C003001C00030010C01F0E2
:1050B000010000000104018C00740170018C0104E6
:1050C0000000010101810171000E001801600180E2
:1050D000010000000184010C013401440184010C31
:1050E0000000000000000000000001003EFC400243
:1050F00040020000000000000000FFFF0000000070
:1051000000000000400240023EFC010000000000E0
:10511000000000006000800080004000400020008F
:1051200020000100020004001FFFE02008A14F2121
:105130004922492C49F04928F9244B2209630022CD
:10514000000008208420467F608005000900717FF0
:1051500011421142FF421142114231FF134001003E
:10516000000010011001100218021604118890505E
:1051700070201050108813081C0410023003100215
:10518000000001002110221022102490289220916A
:10519000FFBE20B028D024902410623023100200DB
:1051A000000004000400FFFF040024102FD02A9800
:1051B0002A942A90FFD22A91AABE6A902FD020105A
:1051C000000010001288529057A050407FFF90209E
:1051D0009790B298128000001FF20001FFFE0000BD
:1051E000000001000102024404480A581242224110
:1051F000C3FE224012400A5004C8024C03060200BB
:10520000000000000000000000000000000000009E
:10521000000000000000000000000000000000008E
:10522000000000000000000000000000000000007E
:10523000000000000000000000000000000000006E
:10524000000000000000000000000000000000005E
:10525000000000000000000000000000000000004E
:10526000000000000000000000000000000000003E
:105270000000000000000000000000008241A76A5A
:105280002A7BD0B44B730000000000000000000037
:10529000000000000000000000000000000000000E
:1052A00000000000000000000000000000000000FE
:1052B0000000000000000000000000004983AFACC7
:1052C0002E9C6F9C096B0000000000000000000095
:1052D00000000000000000000000000000000000CE
:1052E00000000000000000000000000000000000BE
:1052F0000000000000000000000024210A730D944B
:1053000077E656DE000000006B83D39CA6310000D8
:10531000000000000000000000000000000000008D
:10532000000000000000000000000000084210849F
:10533000F39C14A56D6B00004D6BEC93ED8B72CD5F
:10534000F0B40D9C000000004F9C17C691942C6394
:10535000000000000000000000000000000000004D
:105360000000000000000000CE7B718C1084718C66
:1053700054AD75AD9294518C6D73CC93F1B4AEB4C1
:1053800031BD88620000C97216CED6BDDAD613A52B
:1053900095B5CE7B0000000000000000000000007A
:1053A00000000000000000004C6BB9D6DADEFAE61F
:1053B00017C6718CD7BDF7BDB6B5CD8BED9B19FF68
:1053C00011B52E9C65296F9C5BEF1BE758CE58CE1C
:1053D000BAD675AD14A50000000000000000000062
:1053E0000000000000000000929434A517C61BEFD7
:1053F000DDFFB6BD9194D7BDB6B533ADAFB419FFDF
:1054000035DE19FF91A494BD5CEFFEFFBDF7BAD65F
:1054100058C654AD0C6300000000000000000000FE
:10542000000000000000308455ADFADE59CE17C6EA
:10543000D6BDF49C75A596AD76AD17C673C539FF7C
:1054400073C5D8F677E617C6DEFFFEFF9CEF58CE91
:10545000B6B524210000000000000000000000009C
:105460000000000000002421B29478CE17C6DADED6
:10547000BDF795B5F39CF39496AD54AD56DE97EE1B
:105480000B6B35DE39FF77D6FEFF7CEFF6BD33A51B
:10549000000000000000000000000000000000000C
:1054A000000000000000000000000C6313A5B6B56A
:1054B000B9D678CEAF6B8E7313A53084D48C4C7371
:1054C0004B7B11B54F94929454AD54A5918C000030
:1054D000E3180000000000000000000000000000D1
:1054E00000000000000000000000000000004C6B05
:1054F0000F7C4C6BAA5A308454B5B4C5B4CDB1A45A
:1055000097E694B5CE7B2F8CF5CD909C297BCD83EF
:10551000B194000000000000000000000000000046
:105520000000000000000000000000000000043146
:1055300012B5AE7B54ADD29C919C36D697E6B5BDE4
:1055400037CEF2A49094AD7B15D6074A69524C6BC6
:1055500033ADC64100000000000000000000000064
:105560000000000000000000000000008539AD834D
:1055700077DE909C16CE6D6B53B5CD8B32ADF49C1F
:10558000D6B599DEB19CB0A44B83685AAA5A4D6B2C
:105590008D73EC9B6C830000000000000000000095
:1055A0000000000000000000000000008952F1AC83
:1055B00077E6D5C5B9DEF39C94BD58CE7CF72E9422
:1055C00095B557D6F5CDAE7B44292842D29CAA5A30
:1055D000E84185392D9C7094000000000000000017
:1055E000000000000000000000000000000074BD8A
:1055F0001AEFB8DE1AE733A594BD78D678D6709442
:1056000074B538CE14A5D49C0C63308C0000000017
:105610006108A739475A10B52C630000000000004C
:105620000000000000000000000000000000CC832B
:10563000D9E65BF79CF7B5BDF3A478D6F5CD32ADCE
:10564000F2A4308C56ADF49CB5B5242100000000C6
:10565000000006520D94AB838FAC000000000000E8
:10566000000000000000000000000000000000003A
:10567000684A57CEBCF7D6BD78CE37CEB4C54EA457
:10568000509C929456AD38CE95BD000000000000AD
:105690000000308434A553B58DB4EA6A00000000E0
:1056A00000000000000000000000000000000000FA
:1056B0000000C95AB9D698D67BEF37CEF6CDB7EEF3
:1056C00039FFF8F694BD5BEF74AD000000000000F8
:1056D0000000AE73DADEFAE694C52983000000000C
:1056E00000000000000000000000000000000000BA
:1056F00000000000708CB19C9CF798D656DE13DE3B
:1057000019F739FF51BD3AE7308C00000000000066
:1057100000000000F3A41BE7DADED29C00000000CA
:105720000000000000000000000000000000000079
:105730000000000027526A833AE73BE7719CCB6286
:105740006FA4D0BCC64174B5CC8B8B830000000025
:1057500000000000000038C608428C73C739000002
:105760000000000000000000000000000000000039
:1057700000004762AA93AB9394B5B9D67194B5B5BE
:10578000DDFFDDFFF2A4B9D6CD836B8300000000FE
:105790000000000000000000000000000000000009
:1057A00000000000000000000000000000000000F9
:1057B0008031AA93498BEC9B6EA41BE7F6BDDDFFFD
:1057C000FDFFFDFFDDFF1AE7B4BD8FA40A630000F3
:1057D00000000000000000000000000000000000C9
:1057E00000000000000000000000000000000000B9
:1057F000CA62EC9311B5F0B48EB494BDDADE5BEFFF
:10580000FEFFFEFFFEFFDDFF11AD297B82100000D1
:105810000000000000000000000000000000000088
:105820000000000000000000000000000000000078
:10583000000049832B7374B56DACEFBCD5BD78CE39
:10584000FEFFFEFFFEFF3BE7CC8B2DA40000000017
:105850000000000000000000000000000000000048
:105860000000000000000000000000000000000038
:1058700000004D9C297BFADE32B5B2CDB2CD73BDAE
:105880009CF7FEFFBDF799D6D1A4AC83C3200000DE
:105890000000000000000000000000000000000008
:1058A00000000000000000000000000000000000F8
:1058B000000047620BA4AFA4D29CD9DE12A594B518
:1058C00017C6B5B54C6BD6BDB6C5A6316B83CC8BB0
:1058D00000000000000000000000000000000000C8
:1058E00000000000000000000000000000000000B8
:1058F000000000000CA4CB9B685217C654B52000D2
:10590000264A00004A83919CD9E669520000097337
:105910000000000000000000000000000000000087
:105920000000000000000000000000000000000077
:105930000000000050948A8B8A8B58D6D6C50A6B1B
:10594000C96AE96AF0B48B8BD5C5E3180000000082
:105950000000000000000000000000000000000047
:105960000000000000000000000000000000000037
:1059700000000000000000002321B5BDD1A48C83ED
:105980006A83297353B50D9C895A000000000000FA
:105990000000000000000000000000000000000007
:1059A00000000000000000000000000000000000F7
:1059B00000000000000000000000895A919CF2A441
:1059C000E962C862D2A400403084FFFF00000000FA
:1059D00000000000000000000000000000000000C7
:1059E00000000000000000000000000000000000B7
:1059F0000000000000000000000000000000643112
:105A0000AD73696B718C000008420C6300000000EC
:105A10000000000000000000000000000000000086
:105A20000000000000000000000000000000000076
:105A30000000000000000000000000000000000066
:105A400000000000308400000000000000000000A2
:105A50000000000000000000000000000000000046
:105A60000000000000000000000000000000000036
:105A70000000000000008210A210A21020002000F0
:105A80000000000000000000000000000000000016
:105A900000000000000020000000000000000000E6
:105AA0000000205860584128410841084108CB6255
:105AB000CA626952084A2421E3180421C318610804
:105AC0004108821024292B73EB6A4C7330948210A6
:105AD00000000000000000000000000000000000C6
